{
  "contractName": "StarNotary",
  "abi": [
    {
      "constant": true,
      "inputs": [
        {
          "name": "interfaceId",
          "type": "bytes4"
        }
      ],
      "name": "supportsInterface",
      "outputs": [
        {
          "name": "",
          "type": "bool"
        }
      ],
      "payable": false,
      "stateMutability": "view",
      "type": "function"
    },
    {
      "constant": true,
      "inputs": [
        {
          "name": "tokenId",
          "type": "uint256"
        }
      ],
      "name": "getApproved",
      "outputs": [
        {
          "name": "",
          "type": "address"
        }
      ],
      "payable": false,
      "stateMutability": "view",
      "type": "function"
    },
    {
      "constant": false,
      "inputs": [
        {
          "name": "to",
          "type": "address"
        },
        {
          "name": "tokenId",
          "type": "uint256"
        }
      ],
      "name": "approve",
      "outputs": [],
      "payable": false,
      "stateMutability": "nonpayable",
      "type": "function"
    },
    {
      "constant": false,
      "inputs": [
        {
          "name": "from",
          "type": "address"
        },
        {
          "name": "to",
          "type": "address"
        },
        {
          "name": "tokenId",
          "type": "uint256"
        }
      ],
      "name": "transferFrom",
      "outputs": [],
      "payable": false,
      "stateMutability": "nonpayable",
      "type": "function"
    },
    {
      "constant": false,
      "inputs": [
        {
          "name": "from",
          "type": "address"
        },
        {
          "name": "to",
          "type": "address"
        },
        {
          "name": "tokenId",
          "type": "uint256"
        }
      ],
      "name": "safeTransferFrom",
      "outputs": [],
      "payable": false,
      "stateMutability": "nonpayable",
      "type": "function"
    },
    {
      "constant": true,
      "inputs": [
        {
          "name": "tokenId",
          "type": "uint256"
        }
      ],
      "name": "ownerOf",
      "outputs": [
        {
          "name": "",
          "type": "address"
        }
      ],
      "payable": false,
      "stateMutability": "view",
      "type": "function"
    },
    {
      "constant": true,
      "inputs": [
        {
          "name": "owner",
          "type": "address"
        }
      ],
      "name": "balanceOf",
      "outputs": [
        {
          "name": "",
          "type": "uint256"
        }
      ],
      "payable": false,
      "stateMutability": "view",
      "type": "function"
    },
    {
      "constant": false,
      "inputs": [
        {
          "name": "to",
          "type": "address"
        },
        {
          "name": "approved",
          "type": "bool"
        }
      ],
      "name": "setApprovalForAll",
      "outputs": [],
      "payable": false,
      "stateMutability": "nonpayable",
      "type": "function"
    },
    {
      "constant": false,
      "inputs": [
        {
          "name": "from",
          "type": "address"
        },
        {
          "name": "to",
          "type": "address"
        },
        {
          "name": "tokenId",
          "type": "uint256"
        },
        {
          "name": "_data",
          "type": "bytes"
        }
      ],
      "name": "safeTransferFrom",
      "outputs": [],
      "payable": false,
      "stateMutability": "nonpayable",
      "type": "function"
    },
    {
      "constant": true,
      "inputs": [
        {
          "name": "owner",
          "type": "address"
        },
        {
          "name": "operator",
          "type": "address"
        }
      ],
      "name": "isApprovedForAll",
      "outputs": [
        {
          "name": "",
          "type": "bool"
        }
      ],
      "payable": false,
      "stateMutability": "view",
      "type": "function"
    },
    {
      "anonymous": false,
      "inputs": [
        {
          "indexed": true,
          "name": "from",
          "type": "address"
        },
        {
          "indexed": true,
          "name": "to",
          "type": "address"
        },
        {
          "indexed": true,
          "name": "tokenId",
          "type": "uint256"
        }
      ],
      "name": "Transfer",
      "type": "event"
    },
    {
      "anonymous": false,
      "inputs": [
        {
          "indexed": true,
          "name": "owner",
          "type": "address"
        },
        {
          "indexed": true,
          "name": "approved",
          "type": "address"
        },
        {
          "indexed": true,
          "name": "tokenId",
          "type": "uint256"
        }
      ],
      "name": "Approval",
      "type": "event"
    },
    {
      "anonymous": false,
      "inputs": [
        {
          "indexed": true,
          "name": "owner",
          "type": "address"
        },
        {
          "indexed": true,
          "name": "operator",
          "type": "address"
        },
        {
          "indexed": false,
          "name": "approved",
          "type": "bool"
        }
      ],
      "name": "ApprovalForAll",
      "type": "event"
    },
    {
      "constant": false,
      "inputs": [
        {
          "name": "_name",
          "type": "string"
        },
        {
          "name": "_ra",
          "type": "string"
        },
        {
          "name": "_dec",
          "type": "string"
        },
        {
          "name": "_mag",
          "type": "string"
        },
        {
          "name": "_con",
          "type": "string"
        },
        {
          "name": "_story",
          "type": "string"
        },
        {
          "name": "_tokenId",
          "type": "uint256"
        }
      ],
      "name": "createStar",
      "outputs": [],
      "payable": false,
      "stateMutability": "nonpayable",
      "type": "function"
    },
    {
      "constant": false,
      "inputs": [
        {
          "name": "_tokenId",
          "type": "uint256"
        }
      ],
      "name": "mint",
      "outputs": [],
      "payable": false,
      "stateMutability": "nonpayable",
      "type": "function"
    },
    {
      "constant": true,
      "inputs": [
        {
          "name": "_ra",
          "type": "string"
        },
        {
          "name": "_dec",
          "type": "string"
        }
      ],
      "name": "checkIfStarExist",
      "outputs": [
        {
          "name": "",
          "type": "bool"
        }
      ],
      "payable": false,
      "stateMutability": "view",
      "type": "function"
    },
    {
      "constant": false,
      "inputs": [
        {
          "name": "_tokenId",
          "type": "uint256"
        },
        {
          "name": "_price",
          "type": "uint256"
        }
      ],
      "name": "putStarUpForSale",
      "outputs": [],
      "payable": false,
      "stateMutability": "nonpayable",
      "type": "function"
    },
    {
      "constant": true,
      "inputs": [
        {
          "name": "_tokenId",
          "type": "uint256"
        }
      ],
      "name": "starsForSale",
      "outputs": [
        {
          "name": "",
          "type": "uint256"
        }
      ],
      "payable": false,
      "stateMutability": "view",
      "type": "function"
    },
    {
      "constant": false,
      "inputs": [
        {
          "name": "_tokenId",
          "type": "uint256"
        }
      ],
      "name": "buyStar",
      "outputs": [],
      "payable": true,
      "stateMutability": "payable",
      "type": "function"
    },
    {
      "constant": true,
      "inputs": [
        {
          "name": "_tokenId",
          "type": "uint256"
        }
      ],
      "name": "tokenIdToStarInfo",
      "outputs": [
        {
          "name": "",
          "type": "string"
        },
        {
          "name": "",
          "type": "string"
        },
        {
          "name": "",
          "type": "string"
        },
        {
          "name": "",
          "type": "string"
        },
        {
          "name": "",
          "type": "string"
        }
      ],
      "payable": false,
      "stateMutability": "view",
      "type": "function"
    }
  ],
  "bytecode": "0x6080604052620000416301ffc9a77c01000000000000000000000000000000000000000000000000000000000262000084640100000000026401000000009004565b6200007e6380ac58cd7c01000000000000000000000000000000000000000000000000000000000262000084640100000000026401000000009004565b62000142565b63ffffffff7c010000000000000000000000000000000000000000000000000000000002817bffffffffffffffffffffffffffffffffffffffffffffffffffffffff191614151515620000d657600080fd5b6001600080837bffffffffffffffffffffffffffffffffffffffffffffffffffffffff19167bffffffffffffffffffffffffffffffffffffffffffffffffffffffff1916815260200190815260200160002060006101000a81548160ff02191690831515021790555050565b61291b80620001526000396000f3006080604052600436106100f1576000357c0100000000000000000000000000000000000000000000000000000000900463ffffffff16806301ffc9a7146100f65780630564b1301461015a578063081812fc1461019b578063095ea7b3146102085780631967fd981461025557806323b872dd146104ab578063244bbc5c146105185780632f1c34ef146106e9578063316a43611461070957806342842e0e146107405780636352211e146107ad57806370a082311461081a578063a0712d6814610871578063a22cb4651461089e578063b88d4fde146108ed578063e5d58a9f146109a0578063e985e9c514610a67575b600080fd5b34801561010257600080fd5b5061014060048036038101908080357bffffffffffffffffffffffffffffffffffffffffffffffffffffffff19169060200190929190505050610ae2565b604051808215151515815260200191505060405180910390f35b34801561016657600080fd5b5061018560048036038101908080359060200190929190505050610b49565b6040518082815260200191505060405180910390f35b3480156101a757600080fd5b506101c660048036038101908080359060200190929190505050610b66565b604051808273ffffffffffffffffffffffffffffffffffffffff1673ffffffffffffffffffffffffffffffffffffffff16815260200191505060405180910390f35b34801561021457600080fd5b50610253600480360381019080803573ffffffffffffffffffffffffffffffffffffffff16906020019092919080359060200190929190505050610bb7565b005b34801561026157600080fd5b5061028060048036038101908080359060200190929190505050610cfc565b60405180806020018060200180602001806020018060200186810386528b818151815260200191508051906020019080838360005b838110156102d05780820151818401526020810190506102b5565b50505050905090810190601f1680156102fd5780820380516001836020036101000a031916815260200191505b5086810385528a818151815260200191508051906020019080838360005b8381101561033657808201518184015260208101905061031b565b50505050905090810190601f1680156103635780820380516001836020036101000a031916815260200191505b50868103845289818151815260200191508051906020019080838360005b8381101561039c578082015181840152602081019050610381565b50505050905090810190601f1680156103c95780820380516001836020036101000a031916815260200191505b50868103835288818151815260200191508051906020019080838360005b838110156104025780820151818401526020810190506103e7565b50505050905090810190601f16801561042f5780820380516001836020036101000a031916815260200191505b50868103825287818151815260200191508051906020019080838360005b8381101561046857808201518184015260208101905061044d565b50505050905090810190601f1680156104955780820380516001836020036101000a031916815260200191505b509a505050505050505050505060405180910390f35b3480156104b757600080fd5b50610516600480360381019080803573ffffffffffffffffffffffffffffffffffffffff169060200190929190803573ffffffffffffffffffffffffffffffffffffffff169060200190929190803590602001909291905050506112fd565b005b34801561052457600080fd5b506106e7600480360381019080803590602001908201803590602001908080601f0160208091040260200160405190810160405280939291908181526020018383808284378201915050505050509192919290803590602001908201803590602001908080601f0160208091040260200160405190810160405280939291908181526020018383808284378201915050505050509192919290803590602001908201803590602001908080601f0160208091040260200160405190810160405280939291908181526020018383808284378201915050505050509192919290803590602001908201803590602001908080601f0160208091040260200160405190810160405280939291908181526020018383808284378201915050505050509192919290803590602001908201803590602001908080601f0160208091040260200160405190810160405280939291908181526020018383808284378201915050505050509192919290803590602001908201803590602001908080601f0160208091040260200160405190810160405280939291908181526020018383808284378201915050505050509192919290803590602001909291905050506113cc565b005b6107076004803603810190808035906020019092919050505061176e565b005b34801561071557600080fd5b5061073e6004803603810190808035906020019092919080359060200190929190505050611916565b005b34801561074c57600080fd5b506107ab600480360381019080803573ffffffffffffffffffffffffffffffffffffffff169060200190929190803573ffffffffffffffffffffffffffffffffffffffff16906020019092919080359060200190929190505050611a53565b005b3480156107b957600080fd5b506107d860048036038101908080359060200190929190505050611a74565b604051808273ffffffffffffffffffffffffffffffffffffffff1673ffffffffffffffffffffffffffffffffffffffff16815260200191505060405180910390f35b34801561082657600080fd5b5061085b600480360381019080803573ffffffffffffffffffffffffffffffffffffffff169060200190929190505050611af2565b6040518082815260200191505060405180910390f35b34801561087d57600080fd5b5061089c60048036038101908080359060200190929190505050611b76565b005b3480156108aa57600080fd5b506108eb600480360381019080803573ffffffffffffffffffffffffffffffffffffffff169060200190929190803515159060200190929190505050611b83565b005b3480156108f957600080fd5b5061099e600480360381019080803573ffffffffffffffffffffffffffffffffffffffff169060200190929190803573ffffffffffffffffffffffffffffffffffffffff16906020019092919080359060200190929190803590602001908201803590602001908080601f0160208091040260200160405190810160405280939291908181526020018383808284378201915050505050509192919290505050611cbf565b005b3480156109ac57600080fd5b50610a4d600480360381019080803590602001908201803590602001908080601f0160208091040260200160405190810160405280939291908181526020018383808284378201915050505050509192919290803590602001908201803590602001908080601f0160208091040260200160405190810160405280939291908181526020018383808284378201915050505050509192919290505050611ce7565b604051808215151515815260200191505060405180910390f35b348015610a7357600080fd5b50610ac8600480360381019080803573ffffffffffffffffffffffffffffffffffffffff169060200190929190803573ffffffffffffffffffffffffffffffffffffffff169060200190929190505050611dc9565b604051808215151515815260200191505060405180910390f35b6000806000837bffffffffffffffffffffffffffffffffffffffffffffffffffffffff19167bffffffffffffffffffffffffffffffffffffffffffffffffffffffff1916815260200190815260200160002060009054906101000a900460ff169050919050565b600060066000838152602001908152602001600020549050919050565b6000610b7182611e5d565b1515610b7c57600080fd5b6002600083815260200190815260200160002060009054906101000a900473ffffffffffffffffffffffffffffffffffffffff169050919050565b6000610bc282611a74565b90508073ffffffffffffffffffffffffffffffffffffffff168373ffffffffffffffffffffffffffffffffffffffff1614151515610bff57600080fd5b8073ffffffffffffffffffffffffffffffffffffffff163373ffffffffffffffffffffffffffffffffffffffff161480610c3f5750610c3e8133611dc9565b5b1515610c4a57600080fd5b826002600084815260200190815260200160002060006101000a81548173ffffffffffffffffffffffffffffffffffffffff021916908373ffffffffffffffffffffffffffffffffffffffff160217905550818373ffffffffffffffffffffffffffffffffffffffff168273ffffffffffffffffffffffffffffffffffffffff167f8c5be1e5ebec7d5bd14f71427d1e84f3dd0314c0f7b2291e5b200ac8c7c3b92560405160405180910390a4505050565b6060806060806060610d0c6127f9565b6005600088815260200190815260200160002060606040519081016040529081600082018054600181600116156101000203166002900480601f016020809104026020016040519081016040528092919081815260200182805460018160011615610100020316600290048015610dc45780601f10610d9957610100808354040283529160200191610dc4565b820191906000526020600020905b815481529060010190602001808311610da757829003601f168201915b505050505081526020016001820160806040519081016040529081600082018054600181600116156101000203166002900480601f016020809104026020016040519081016040528092919081815260200182805460018160011615610100020316600290048015610e775780601f10610e4c57610100808354040283529160200191610e77565b820191906000526020600020905b815481529060010190602001808311610e5a57829003601f168201915b50505050508152602001600182018054600181600116156101000203166002900480601f016020809104026020016040519081016040528092919081815260200182805460018160011615610100020316600290048015610f195780601f10610eee57610100808354040283529160200191610f19565b820191906000526020600020905b815481529060010190602001808311610efc57829003601f168201915b50505050508152602001600282018054600181600116156101000203166002900480601f016020809104026020016040519081016040528092919081815260200182805460018160011615610100020316600290048015610fbb5780601f10610f9057610100808354040283529160200191610fbb565b820191906000526020600020905b815481529060010190602001808311610f9e57829003601f168201915b50505050508152602001600382018054600181600116156101000203166002900480601f01602080910402602001604051908101604052809291908181526020018280546001816001161561010002031660029004801561105d5780601f106110325761010080835404028352916020019161105d565b820191906000526020600020905b81548152906001019060200180831161104057829003601f168201915b5050505050815250508152602001600582018054600181600116156101000203166002900480601f0160208091040260200160405190810160405280929190818152602001828054600181600116156101000203166002900480156111035780601f106110d857610100808354040283529160200191611103565b820191906000526020600020905b8154815290600101906020018083116110e657829003601f168201915b505050505081525050905060405180600001905060405180910390206000191681600001516040518082805190602001908083835b60208310151561115d5780518252602082019150602081019050602083039250611138565b6001836020036101000a03801982511681845116808217855250505050505090500191505060405180910390206000191614151515611204576040517f08c379a000000000000000000000000000000000000000000000000000000000815260040180806020018281038252601a8152602001807f4e6f207374617220666f756e6420666f7220746f6b656e20696400000000000081525060200191505060405180910390fd5b806000015181604001516112556040805190810160405280600381526020017f72615f0000000000000000000000000000000000000000000000000000000000815250846020015160000151611ecf565b61129c6040805190810160405280600481526020017f6465635f00000000000000000000000000000000000000000000000000000000815250856020015160200151611ecf565b6112e36040805190810160405280600481526020017f6d61675f00000000000000000000000000000000000000000000000000000000815250866020015160400151611ecf565b849450839350955095509550955095505091939590929450565b6113073382612096565b151561131257600080fd5b600073ffffffffffffffffffffffffffffffffffffffff168273ffffffffffffffffffffffffffffffffffffffff161415151561134e57600080fd5b611358838261212b565b611362838261222e565b61136c828261235d565b808273ffffffffffffffffffffffffffffffffffffffff168473ffffffffffffffffffffffffffffffffffffffff167fddf252ad1be2c89b69c2b068fc378daa952ba7f163c4a11628f55a4df523b3ef60405160405180910390a4505050565b6113d46127f9565b6113de8787611ce7565b151515611479576040517f08c379a00000000000000000000000000000000000000000000000000000000081526004018080602001828103825260328152602001807f53746172207769746820746865736520636f6f7264696e61746573206861732081526020017f6120746f6b656e20696420616c7265616479000000000000000000000000000081525060400191505060405180910390fd5b611482876124b7565b15156114f6576040517f08c379a000000000000000000000000000000000000000000000000000000000815260040180806020018281038252601a8152602001807f526967687420617363656e73696f6e20697320696e76616c696400000000000081525060200191505060405180910390fd5b6114ff866124b7565b1515611573576040517f08c379a00000000000000000000000000000000000000000000000000000000081526004018080602001828103825260168152602001807f4465636c696e6174696f6e20697320696e76616c69640000000000000000000081525060200191505060405180910390fd5b6060604051908101604052808981526020016080604051908101604052808a8152602001898152602001888152602001878152508152602001848152509050806005600084815260200190815260200160002060008201518160000190805190602001906115e2929190612821565b506020820151816001016000820151816000019080519060200190611608929190612821565b506020820151816001019080519060200190611625929190612821565b506040820151816002019080519060200190611642929190612821565b50606082015181600301908051906020019061165f929190612821565b505050604082015181600501908051906020019061167e929190612821565b50905050816007886040518082805190602001908083835b6020831015156116bb5780518252602082019150602081019050602083039250611696565b6001836020036101000a0380198251168184511680821785525050505050509050019150509081526020016040518091039020876040518082805190602001908083835b60208310151561172457805182526020820191506020810190506020830392506116ff565b6001836020036101000a03801982511681845116808217855250505050505090500191505090815260200160405180910390208190555061176482611b76565b5050505050505050565b6000806000600660008581526020019081526020016000205411151561179357600080fd5b600660008481526020019081526020016000205491508134101515156117b857600080fd5b3073ffffffffffffffffffffffffffffffffffffffff16636352211e846040518263ffffffff167c010000000000000000000000000000000000000000000000000000000002815260040180828152602001915050602060405180830381600087803b15801561182757600080fd5b505af115801561183b573d6000803e3d6000fd5b505050506040513d602081101561185157600080fd5b8101908080519060200190929190505050905061186e818461222e565b611878338461235d565b8073ffffffffffffffffffffffffffffffffffffffff166108fc839081150290604051600060405180830381858888f193505050501580156118be573d6000803e3d6000fd5b5081341115611911573373ffffffffffffffffffffffffffffffffffffffff166108fc8334039081150290604051600060405180830381858888f1935050505015801561190f573d6000803e3d6000fd5b505b505050565b3373ffffffffffffffffffffffffffffffffffffffff163073ffffffffffffffffffffffffffffffffffffffff16636352211e846040518263ffffffff167c010000000000000000000000000000000000000000000000000000000002815260040180828152602001915050602060405180830381600087803b15801561199c57600080fd5b505af11580156119b0573d6000803e3d6000fd5b505050506040513d60208110156119c657600080fd5b810190808051906020019092919050505073ffffffffffffffffffffffffffffffffffffffff161480611a2c57503373ffffffffffffffffffffffffffffffffffffffff16611a1483610b66565b73ffffffffffffffffffffffffffffffffffffffff16145b1515611a3757600080fd5b8060066000848152602001908152602001600020819055505050565b611a6f8383836020604051908101604052806000815250611cbf565b505050565b6000806001600084815260200190815260200160002060009054906101000a900473ffffffffffffffffffffffffffffffffffffffff169050600073ffffffffffffffffffffffffffffffffffffffff168173ffffffffffffffffffffffffffffffffffffffff1614151515611ae957600080fd5b80915050919050565b60008073ffffffffffffffffffffffffffffffffffffffff168273ffffffffffffffffffffffffffffffffffffffff1614151515611b2f57600080fd5b600360008373ffffffffffffffffffffffffffffffffffffffff1673ffffffffffffffffffffffffffffffffffffffff168152602001908152602001600020549050919050565b611b8033826124dc565b50565b3373ffffffffffffffffffffffffffffffffffffffff168273ffffffffffffffffffffffffffffffffffffffff1614151515611bbe57600080fd5b80600460003373ffffffffffffffffffffffffffffffffffffffff1673ffffffffffffffffffffffffffffffffffffffff16815260200190815260200160002060008473ffffffffffffffffffffffffffffffffffffffff1673ffffffffffffffffffffffffffffffffffffffff16815260200190815260200160002060006101000a81548160ff0219169083151502179055508173ffffffffffffffffffffffffffffffffffffffff163373ffffffffffffffffffffffffffffffffffffffff167f17307eab39ab6107e8899845ad3d59bd9653f200f220920489ca2b5937696c3183604051808215151515815260200191505060405180910390a35050565b611cca8484846112fd565b611cd684848484612582565b1515611ce157600080fd5b50505050565b6000806007846040518082805190602001908083835b602083101515611d225780518252602082019150602081019050602083039250611cfd565b6001836020036101000a0380198251168184511680821785525050505050509050019150509081526020016040518091039020836040518082805190602001908083835b602083101515611d8b5780518252602082019150602081019050602083039250611d66565b6001836020036101000a0380198251168184511680821785525050505050509050019150509081526020016040518091039020541415905092915050565b6000600460008473ffffffffffffffffffffffffffffffffffffffff1673ffffffffffffffffffffffffffffffffffffffff16815260200190815260200160002060008373ffffffffffffffffffffffffffffffffffffffff1673ffffffffffffffffffffffffffffffffffffffff16815260200190815260200160002060009054906101000a900460ff16905092915050565b6000806001600084815260200190815260200160002060009054906101000a900473ffffffffffffffffffffffffffffffffffffffff169050600073ffffffffffffffffffffffffffffffffffffffff168173ffffffffffffffffffffffffffffffffffffffff161415915050919050565b60608060608060008087945086935083518551016040519080825280601f01601f191660200182016040528015611f155781602001602082028038833980820191505090505b509250600091505b8451821015611fd0578482815181101515611f3457fe5b9060200101517f010000000000000000000000000000000000000000000000000000000000000090047f0100000000000000000000000000000000000000000000000000000000000000028382806001019350815181101515611f9357fe5b9060200101907effffffffffffffffffffffffffffffffffffffffffffffffffffffffffffff1916908160001a9053508180600101925050611f1d565b600091505b8351821015612088578382815181101515611fec57fe5b9060200101517f010000000000000000000000000000000000000000000000000000000000000090047f010000000000000000000000000000000000000000000000000000000000000002838280600101935081518110151561204b57fe5b9060200101907effffffffffffffffffffffffffffffffffffffffffffffffffffffffffffff1916908160001a9053508180600101925050611fd5565b829550505050505092915050565b6000806120a283611a74565b90508073ffffffffffffffffffffffffffffffffffffffff168473ffffffffffffffffffffffffffffffffffffffff16148061211157508373ffffffffffffffffffffffffffffffffffffffff166120f984610b66565b73ffffffffffffffffffffffffffffffffffffffff16145b8061212257506121218185611dc9565b5b91505092915050565b8173ffffffffffffffffffffffffffffffffffffffff1661214b82611a74565b73ffffffffffffffffffffffffffffffffffffffff1614151561216d57600080fd5b600073ffffffffffffffffffffffffffffffffffffffff166002600083815260200190815260200160002060009054906101000a900473ffffffffffffffffffffffffffffffffffffffff1673ffffffffffffffffffffffffffffffffffffffff1614151561222a5760006002600083815260200190815260200160002060006101000a81548173ffffffffffffffffffffffffffffffffffffffff021916908373ffffffffffffffffffffffffffffffffffffffff1602179055505b5050565b8173ffffffffffffffffffffffffffffffffffffffff1661224e82611a74565b73ffffffffffffffffffffffffffffffffffffffff1614151561227057600080fd5b6122c36001600360008573ffffffffffffffffffffffffffffffffffffffff1673ffffffffffffffffffffffffffffffffffffffff168152602001908152602001600020546127a490919063ffffffff16565b600360008473ffffffffffffffffffffffffffffffffffffffff1673ffffffffffffffffffffffffffffffffffffffff1681526020019081526020016000208190555060006001600083815260200190815260200160002060006101000a81548173ffffffffffffffffffffffffffffffffffffffff021916908373ffffffffffffffffffffffffffffffffffffffff1602179055505050565b600073ffffffffffffffffffffffffffffffffffffffff166001600083815260200190815260200160002060009054906101000a900473ffffffffffffffffffffffffffffffffffffffff1673ffffffffffffffffffffffffffffffffffffffff161415156123cb57600080fd5b816001600083815260200190815260200160002060006101000a81548173ffffffffffffffffffffffffffffffffffffffff021916908373ffffffffffffffffffffffffffffffffffffffff1602179055506124706001600360008573ffffffffffffffffffffffffffffffffffffffff1673ffffffffffffffffffffffffffffffffffffffff168152602001908152602001600020546127c590919063ffffffff16565b600360008473ffffffffffffffffffffffffffffffffffffffff1673ffffffffffffffffffffffffffffffffffffffff168152602001908152602001600020819055505050565b600060608290506000815114156124d157600091506124d6565b600191505b50919050565b600073ffffffffffffffffffffffffffffffffffffffff168273ffffffffffffffffffffffffffffffffffffffff161415151561251857600080fd5b612522828261235d565b808273ffffffffffffffffffffffffffffffffffffffff16600073ffffffffffffffffffffffffffffffffffffffff167fddf252ad1be2c89b69c2b068fc378daa952ba7f163c4a11628f55a4df523b3ef60405160405180910390a45050565b6000806125a48573ffffffffffffffffffffffffffffffffffffffff166127e6565b15156125b3576001915061279b565b8473ffffffffffffffffffffffffffffffffffffffff1663150b7a02338887876040518563ffffffff167c0100000000000000000000000000000000000000000000000000000000028152600401808573ffffffffffffffffffffffffffffffffffffffff1673ffffffffffffffffffffffffffffffffffffffff1681526020018473ffffffffffffffffffffffffffffffffffffffff1673ffffffffffffffffffffffffffffffffffffffff16815260200183815260200180602001828103825283818151815260200191508051906020019080838360005b838110156126a857808201518184015260208101905061268d565b50505050905090810190601f1680156126d55780820380516001836020036101000a031916815260200191505b5095505050505050602060405180830381600087803b1580156126f757600080fd5b505af115801561270b573d6000803e3d6000fd5b505050506040513d602081101561272157600080fd5b8101908080519060200190929190505050905063150b7a027c0100000000000000000000000000000000000000000000000000000000027bffffffffffffffffffffffffffffffffffffffffffffffffffffffff1916817bffffffffffffffffffffffffffffffffffffffffffffffffffffffff19161491505b50949350505050565b6000808383111515156127b657600080fd5b82840390508091505092915050565b60008082840190508381101515156127dc57600080fd5b8091505092915050565b600080823b905060008111915050919050565b60c060405190810160405280606081526020016128146128a1565b8152602001606081525090565b828054600181600116156101000203166002900490600052602060002090601f016020900481019282601f1061286257805160ff1916838001178555612890565b82800160010185558215612890579182015b8281111561288f578251825591602001919060010190612874565b5b50905061289d91906128ca565b5090565b608060405190810160405280606081526020016060815260200160608152602001606081525090565b6128ec91905b808211156128e85760008160009055506001016128d0565b5090565b905600a165627a7a723058203611501c42d7249b24d1c2b27eca1b272278d900d056e2c086240e42ca2187b20029",
  "source": "pragma solidity ^0.4.23;\n\nimport 'openzeppelin-solidity/contracts/token/ERC721/ERC721.sol';\n\ncontract StarNotary is ERC721 { \n\n    struct Star { \n        string name;\n        StarCoordinates coordinates;\n        string story; \n    }\n\n    struct StarCoordinates {\n        // only ra and dec are used for star identity\n        string ra; // right ascension\n        string dec; // declination\n        string mag; // magnitude\n        string con; // constellation name\n    }\n\n    mapping(uint256 => Star) public tokenIdToStarInfo; \n    mapping(uint256 => uint256) public starsForSale;\n    mapping(string => mapping(string => uint256)) private coordinatesToTokenId;\n\n    function createStar(string _name, string _ra, string _dec, string _mag, string _con, string _story, uint256 _tokenId) public { \n        require(!checkIfStarExist(_ra, _dec), \"Star with these coordinates has a token id already\");\n        require(validateCoordinate(_ra), \"Right ascension is invalid\");\n        require(validateCoordinate(_dec), \"Declination is invalid\");\n\n        Star memory newStar = Star(_name, StarCoordinates(_ra,_dec,_mag,_con), _story);\n        tokenIdToStarInfo[_tokenId] = newStar;\n        coordinatesToTokenId[_ra][_dec] = _tokenId;\n\n        mint(_tokenId);\n    }\n\n    function mint(uint256 _tokenId) public {\n        _mint(msg.sender, _tokenId);\n    }\n\n    function checkIfStarExist(string _ra, string _dec) public view returns(bool) {\n        return coordinatesToTokenId[_ra][_dec] != 0;\n    }\n\n    function putStarUpForSale(uint256 _tokenId, uint256 _price) public { \n        require(\n                this.ownerOf(_tokenId) == msg.sender ||\n                getApproved(_tokenId) == msg.sender\n                );\n\n        starsForSale[_tokenId] = _price;\n    }\n\n    function starsForSale(uint256 _tokenId) public view returns(uint256) {\n        return starsForSale[_tokenId];\n    }\n\n    function buyStar(uint256 _tokenId) public payable { \n        require(starsForSale[_tokenId] > 0);\n        uint256 starCost = starsForSale[_tokenId];\n        require(msg.value >= starCost);\n\n        address starOwner = this.ownerOf(_tokenId);\n\n        _removeTokenFrom(starOwner, _tokenId);\n        _addTokenTo(msg.sender, _tokenId);\n\n        starOwner.transfer(starCost);\n\n        if(msg.value > starCost) { \n            msg.sender.transfer(msg.value - starCost);\n        }\n    }\n\n    function tokenIdToStarInfo(uint256 _tokenId) public view returns (string, string, string, string, string) {\n        Star memory star = tokenIdToStarInfo[_tokenId];        \n        require(keccak256(star.name) != keccak256(\"\"), \"No star found for token id\");\n        return (\n                    star.name, \n                    star.story, \n                    join(\"ra_\",star.coordinates.ra), \n                    join(\"dec_\",star.coordinates.dec),\n                    join(\"mag_\",star.coordinates.mag)\n                );\n    }\n\n    function validateCoordinate(string str) internal pure returns (bool) {\n        bytes memory b = bytes(str);\n        if (b.length == 0) {\n            return false;\n        }\n        return true;\n    }\n\n    function join(string a1, string a2) internal pure returns (string) {\n        bytes memory ba1 = bytes(a1);\n        bytes memory ba2 = bytes(a2);\n        bytes memory temp = bytes(new string(ba1.length + ba2.length));\n        uint i; uint k;\n        for (i=0; i < ba1.length; i++) temp[k++] = ba1[i];\n        for (i=0; i < ba2.length; i++) temp[k++] = ba2[i];\n        return string(temp);\n    }\n}\n",
  "sourcePath": "/home/sergey/udacity/project-2/Project_2/ethereum/contracts/StarNotary.sol",
  "compiler": {
    "name": "solc",
    "version": "0.4.24+commit.e67f0147.Emscripten.clang"
  },
  "schemaVersion": "2.0.1",
  "updatedAt": "2018-11-11T15:22:01.248Z"
}